{
  "contractName": "romBank",
  "abi": [
    {
      "inputs": [],
      "stateMutability": "nonpayable",
      "type": "constructor"
    },
    {
      "inputs": [],
      "name": "deposit",
      "outputs": [],
      "stateMutability": "payable",
      "type": "function"
    },
    {
      "inputs": [],
      "name": "withdraw",
      "outputs": [],
      "stateMutability": "nonpayable",
      "type": "function"
    },
    {
      "inputs": [],
      "name": "borrow",
      "outputs": [],
      "stateMutability": "payable",
      "type": "function"
    },
    {
      "inputs": [],
      "name": "payOff",
      "outputs": [],
      "stateMutability": "nonpayable",
      "type": "function"
    }
  ],
  "bytecode": "0x608060405234801561001057600080fd5b5060b58061001f6000396000f3fe608060405260043610603a5760003560e01c80633ccfd60b14603f5780633fac68d5146053578063d0e30db0146067578063e68d356914606f575b600080fd5b348015604a57600080fd5b5060516077565b005b348015605e57600080fd5b5060656079565b005b606d607b565b005b6075607d565b005b565b565b565b56fea26469706673582212201144b541e16443c808d1e3e88cbc02e81aa66f601a92eec0f06052e788cd48e264736f6c63430007060033",
  "immutableReferences": {},
  "source": "// SPDX-License-Identifier: MIT\r\npragma solidity >=0.6.0 <0.8.0;\r\n\r\nimport \"./Token.sol\";\r\n\r\ncontract romBank {\r\n\r\n \r\n  constructor() public {\r\n   \r\n  }\r\n\r\n  function deposit() payable public {\r\n \r\n  }\r\n\r\n  function withdraw() public {\r\n \r\n  }\r\n\r\n  function borrow() payable public {\r\n\r\n  }\r\n\r\n  function payOff() public {\r\n   \r\n  }\r\n}",
  "sourcePath": "/mnt/c/Users/antho/Coding Projects/romulon-defi/romulon-defi/src/contracts/romBank.sol",
  "compiler": {
    "name": "solc",
    "version": "0.7.6+commit.7338295f.Emscripten.clang"
  },
  "schemaVersion": "3.4.1",
  "updatedAt": "2021-07-27T20:09:29.548Z",
  "devdoc": {
    "kind": "dev",
    "methods": {},
    "version": 1
  },
  "userdoc": {
    "kind": "user",
    "methods": {},
    "version": 1
  }
}