{
  "contractName": "romBank",
  "abi": [
    {
      "inputs": [
        {
          "internalType": "contract Token",
          "name": "_token",
          "type": "address"
        }
      ],
      "stateMutability": "nonpayable",
      "type": "constructor"
    },
    {
      "inputs": [
        {
          "internalType": "address",
          "name": "",
          "type": "address"
        }
      ],
      "name": "etherBalanceOf",
      "outputs": [
        {
          "internalType": "uint256",
          "name": "",
          "type": "uint256"
        }
      ],
      "stateMutability": "view",
      "type": "function"
    },
    {
      "inputs": [],
      "name": "deposit",
      "outputs": [],
      "stateMutability": "payable",
      "type": "function"
    },
    {
      "inputs": [],
      "name": "withdraw",
      "outputs": [],
      "stateMutability": "nonpayable",
      "type": "function"
    },
    {
      "inputs": [],
      "name": "borrow",
      "outputs": [],
      "stateMutability": "payable",
      "type": "function"
    },
    {
      "inputs": [],
      "name": "payOff",
      "outputs": [],
      "stateMutability": "nonpayable",
      "type": "function"
    }
  ],
  "bytecode": "0x608060405234801561001057600080fd5b506040516102243803806102248339818101604052602081101561003357600080fd5b8101908080519060200190929190505050806000806101000a81548173ffffffffffffffffffffffffffffffffffffffff021916908373ffffffffffffffffffffffffffffffffffffffff16021790555050610190806100946000396000f3fe60806040526004361061004a5760003560e01c8063179fc99f1461004f5780633ccfd60b146100b45780633fac68d5146100cb578063d0e30db0146100e2578063e68d3569146100ec575b600080fd5b34801561005b57600080fd5b5061009e6004803603602081101561007257600080fd5b81019080803573ffffffffffffffffffffffffffffffffffffffff1690602001909291905050506100f6565b6040518082815260200191505060405180910390f35b3480156100c057600080fd5b506100c961010e565b005b3480156100d757600080fd5b506100e0610110565b005b6100ea610112565b005b6100f4610158565b005b60016020528060005260406000206000915090505481565b565b565b34600160003373ffffffffffffffffffffffffffffffffffffffff1673ffffffffffffffffffffffffffffffffffffffff16815260200190815260200160002081905550565b56fea2646970667358221220f0951de30e39ee712b014248ef861b06960e5f9da6707f8726ba816f961289ef64736f6c63430007060033",
  "immutableReferences": {},
  "source": "// SPDX-License-Identifier: MIT\r\npragma solidity >=0.6.0 <0.8.0;\r\n\r\nimport \"./Token.sol\";\r\n\r\ncontract romBank {\r\n  //state variable\r\n  Token private token;\r\n \r\n  mapping(address => uint) public etherBalanceOf;\r\n\r\n\r\n  //token in constructor is local variable\r\n  constructor(Token _token) public {\r\n   token = _token;\r\n  }\r\n\r\n  function deposit() payable public {\r\n \r\n    etherBalanceOf[msg.sender] = msg.value;\r\n  }\r\n\r\n  function withdraw() public {\r\n \r\n  }\r\n\r\n  function borrow() payable public {\r\n\r\n  }\r\n\r\n  function payOff() public {\r\n   \r\n  }\r\n}",
  "sourcePath": "/mnt/c/Users/antho/Coding Projects/romulon-defi/romulon-defi/src/contracts/romBank.sol",
  "compiler": {
    "name": "solc",
    "version": "0.7.6+commit.7338295f.Emscripten.clang"
  },
  "schemaVersion": "3.4.1",
  "updatedAt": "2021-07-30T21:08:22.459Z",
  "devdoc": {
    "kind": "dev",
    "methods": {},
    "version": 1
  },
  "userdoc": {
    "kind": "user",
    "methods": {},
    "version": 1
  }
}